:0300000002024EAB
:0C024E00787FE4F6D8FD75812E02029541
:0B048B001204B312046C12045880FE2F
:0604BC0001100101110016
:10046C005389F0438901E4F58CF58AC28DC28C2244
:0904AA00EF6003D28C22C28C2207
:10041600AF8C7512008F13AF8A7514008F15AF8CD1
:06042600EFFEAD8AEDFFC0
:01042C0022AD
:0604C300E4F58CF58A222D
:0904B300D288C289D2A8D2AF227E
:03000300020006F2
:10000600C0E0C0F0C083C082C0D075D000C000C0C0
:1000160001C002C003C004C005C006C0077F0112AC
:1000260004AAE510B401391204168E098F0A1204C7
:10003600C3C374D4950AE5096480F8743064809863
:10004600400302010D74A4950AE5096480F874382A
:10005600648098500302010DC2A075100202010DC2
:10006600E5106402600302010D1204168E098F0A60
:100076001204C3C3746C950AE5096480F8740264BB
:10008600809850387454950AE5096480F8740664BB
:1000960080984028E51175F008120198240CF8C0E4
:1000A60000E6FFE51175F008120198AEF0A8067497
:1000B60001088002C333D8FCF45F8046C374D6952A
:1000C6000AE5096480F87406648098503A74BE950F
:1000D6000AE5096480F8740A648098402AE5117577
:1000E600F008120198240CF8C000E6FFE51175F03F
:1000F60008120198AEF0A8067401088002C333D82E
:10010600FC4FD000F60511C3E511648094A040674A
:10011600E511FB3395E0FA7516077D017F011203A1
:10012600F9E50DF4B50C14E50FF4B50E0E751100D6
:10013600E4FF1204AA1204C3751001E50CFB7A0051
:100146007516037D017F021203F9E50DFB7A007532
:1001560016037D057F021203F9E50EFB7A0075167C
:10016600037D097F021203F9E50FFB7A007516037A
:100176007D0D7F021203F9D007D006D005D004D03A
:1001860003D002D001D000D0D0D082D083D0F0D01E
:02019600E03255
:0304C900AF0C2253
:06047C00C2A58F80D2A78B
:080482007F027EEFDEFEDFFCCD
:01048A00224F
:0A049600C2A612047CC2A702048271
:1003DB00CFCDCFCECCCE1201F97C007D0A1201F924
:0403EB00ED2430FFCE
:0A03EF00D2A612047CC2A702048209
:10042D00AE07BE0104ED148006BE0209ED243F4463
:06043D0080FF120496226C
:100458007F381204967F0C1204967F061204967F4A
:0404680001020496F3
:0A04A000AC0312042DAF040203EFB9
:0603B8008B2C8A2D892E1A
:1003BE0012042DE4FDAB2CAA2DA92E8D827583007F
:0C03CE001201BAFF60061203EF0D80E977
:0103DA002200
:0C0385007F0AEA24FFFDE434FFFC7E0048
:080391008E178F188C198D1ACC
:100399007F017E00E4FBEBC3951AE5196480F874CC
:0E03A9008098500AAC17AD181201E70B80E8DF
:0103B7002223
:0403F9008A148B15C2
:1003FD0012042DAA16EAD39400400D120385AC14F5
:08040D00AD151203DB1A80EDAE
:0104150022C4
:1002DA0012042DC3EA64809480400B7F2B1203EF33
:1002EA008A208B21800E7F2D1203EFC3E49BF52118
:1002FA00E49AF520AA1FEAD39400400D120385ACB4
:09030A0020AD211203DB1A80ED85
:0103130022C7
:040314008A248B2587
:1003180012042DAA26EAD3940040297F10120387DD
:10032800AC24AD25CFCDCFCECCCE1201F9EF540FF2
:10033800FEC3940AEE5004243080022437FF1203CF
:04034800EF1A80D157
:01034C00228E
:04034D008A298B2A44
:1003510012042DAA2BEAD394004028EA24FFFDE4DD
:1003610034FFFC7F027E00120391AC29AD2ACFCD70
:10037100CFCECCCE1201F9EF54012430FF1203EF9E
:030381001A80D20D
:010384002256
:10044300EF1FAC0670011E4C600A7D027CEFDCFEE0
:04045300DDFC80EC60
:010457002282
:10025A0002048BE493A3F8E493A34003F68001F22B
:10026A0008DFF48029E493A3F85407240CC8C333A5
:10027A00C4540F4420C8834004F456800146F6DF74
:10028A00E4800B01020408102040809004BCE47E44
:10029A00019360BCA3FF543F30E509541FFEE49369
:1002AA00A360010ECF54C025E060A840B8E493A330
:1002BA00FAE493A3F8E493A3C8C582C8CAC583CA5B
:1002CA00F0A3C8C582C8CAC583CADFE9DEE780BE13
:0104C2000039
:10019800C2D530F707B2D563F0FF05F030E70CB2EF
:1001A800D5F4048463F0FF05F080018430D502F4AF
:0201B80004221F
:1001BA00BB010CE58229F582E5833AF583E02250FA
:1001CA0006E92582F8E622BBFE06E92582F8E22244
:0D01DA00E58229F582E5833AF583E493225E
:1001E700EF8DF0A4A8F0CF8CF0A428CE8DF0A42E2C
:0201F700FE22E6
:1001F900BC000BBE0029EF8DF084FFADF022E4CCEA
:10020900F875F008EF2FFFEE33FEEC33FCEE9DECB2
:10021900984005FCEE9DFE0FD5F0E9E4CEFD22EDF8
:10022900F8F5F0EE8420D21CFEADF075F008EF2F42
:10023900FFED33FD4007985006D5F0F222C398FD33
:050249000FD5F0EA22D0
:00000001FF
