:03000000020829CA
:0C082900787FE4F6D8FD75812A02046295
:0B083500543A002D002B002E00430061
:100462001207F97BFF7A0879357D017F011207199E
:1004720012081C7F207E031207E41206A48F258E29
:10048200248D238C22E4FFFEFDFCAB25AA24A923A4
:10049200A8221201A9501BAF25AE24AD23AC221213
:1004A20002228F258E248D238C227BFF7A087938B5
:1004B20080067BFF7A08793A7D037F01120719AF24
:1004C20025AE24AD23AC22120271AB07AA06750C2D
:1004D200037D047F011206F57BFF7A08793C7D07D4
:1004E2007F011207197F007E407D1C7C46AB25AA46
:1004F20024A923A822120003120271E47B107A2796
:10050200F9F81203C2750C047D087F011206F57B0F
:0F051200FF7A08793E7D0C7F01120719020472EF
:1007E400EF1FAC0670011E4C600A7D027CEFDCFE3C
:0407F400DDFC80ECBC
:0107F80022DE
:0D081C0012079A7FCC12073C7F4402073C74
:1006A40012079A7FCC12073C7FBE12073C1206CF7A
:1006B4008F081206CFEFFEE508FFFDAC06EC120230
:0B06C40038E4FBFA7980784102010C59
:06080D00C2A58F80D2A7F6
:080813007F027EEFDEFEDFFC38
:01081B0022BA
:0A084000C2A612080DC2A702081399
:10075E00CFCDCFCECCCE1203317C007D0A12033129
:04076E00ED2430FF47
:0A077200D2A612080DC2A702081358
:10077C00AE07EEFB7A0064017004ED148009EB64A3
:0E078C00024A7009ED243F4480FF120840220B
:1007F9007F381208407F0C1208407F061208407F9C
:0408090001020840A0
:0A084A00AC0312077CAF0402077232
:060719008B088A09890A21
:10071F0012077CE4FDAB08AA09A90A8D8275830034
:0C072F001202F2FF60061207720D80E952
:01073B00229B
:0A067300EF24FFFDEE34FFFC7F0AC8
:08067D008E0D8F0E8C0F8D1005
:100685007F017E00E4FBEBC39510E50F6480F874F1
:0E0695008098500AAC0DAD0E12031F0B80E8CA
:0106A3002234
:0406F5008A0A8B0BD7
:1006F90012077CAA0CEAFF7E00D3940074809480D0
:0F070900400D120673AC0AAD0B12075E1A80E6A4
:0107180022BE
:04056C008B828A8371
:1005700012077CC3E58364809480400D7F2B1207B3
:100580007285831685821780107F2D120772C3E44F
:100590009582F517E49583F516AA15EAFF7E00D338
:1005A000940074809480400D120673AC16AD17123F
:0505B000075E1A80E661
:0105B5002223
:040521008A1A8B1B8C
:1005250012077CAA1CEAD39400748094804037EAB1
:1005350024FFFDE434FFFC7F107E0012067DAC1A1B
:10054500AD1BCFCDCFCECCCE120331EF540FFEC3B2
:10055500940A74809480EE5004243080022437FF7E
:060565001207721A80BFAC
:01056B00226D
:040636008A1F8B206C
:10063A0012077CAA21EAFF7E00D39400748094807A
:10064A004026EF24FFFDEE34FFFC7F0212067DAC4C
:10065A001FAD20CFCDCFCECCCE120331EF54012423
:08066A0030FF1207721A80CD67
:010672002265
:10079A00D2B7C2B77528E3D528FDD2B775281DD5BB
:0D07AA0028FDA2B7E433FF7528E3D528FD34
:0107B700221F
:1007B800C2B7752804D528FDEF24FF92B77528190C
:0607C800D528FDD2B72286
:010854002281
:1007CE00C2B7120854D2B7120854A2B7E433FF7559
:0507DE002816D528FDDE
:0107E30022F3
:02073C00AE0706
:10073E00E4FDEDC39408748094805013A8057401F1
:0F074E00088002C333D8FC5EFF1207B80D80E3AA
:01075D002279
:1006CF00E4FEFDEEC394087480948050161207CE9A
:1006DF00EF600DA8067401088002C333D8FC4205F1
:0506EF000E80E0AF05E4
:0106F40022E3
:1005B600E4F52920B10375290120B003752902202D
:1005C600B2147F147E001207E430B2FD7F147E0061
:1005D6001207E47F032220B3147F147E001207E47F
:0F05E60030B3FD7F147E001207E47F0422AF299B
:0105F50022E3
:1005F6008527261205B68F27AF267E00EF64017089
:1006060007E5277003752A01EF64024E7007E52798
:100616007003752A02E52664037007E527700375E3
:0F0626002A03E52664047007E5277003752A048C
:0106350022A2
:10000300EC4D6011E8497017ED33EC3304600DE4F7
:10001300FCFFFEFD22E933E8330470F80202DD122F
:1000230002A858046009E4CC248150062850090230
:1000330002E72840030202E4C0E0EB4A7044B980BF
:1000430006D0E0FB0202D3EF4E701CBD8008EBFF2D
:10005300EAFEE9FD80EBE98DF0A4FEE5F00200EC99
:10006300E9CDF9EAFEEBFFEF89F0A4FCE5F0CE89D8
:10007300F0A42EFFE435F0CD89F0A42DFEE435F095
:100083008067EF4E7005BD80D780C3EF8BF0A4ACC3
:10009300F0EE8BF0A42CFCE435F0F8EF8AF0A42CFE
:1000A300E5F038FCE433CB8DF0A42CFCE5F03BF811
:1000B300EE8AF0A42CFCE5F038F8E433CF89F0A401
:1000C3002CFCE5F038CF3400CE89F0A42FFFE5F007
:1000D3003EFEE433C98DF0A42EFEE5F039CD8AF05F
:1000E300A42FFFE5F03EFEE43DFD33D0E0FB5007D7
:1000F3000BBB000F0202E7EC2CFCEF33FFEE33FEE9
:06010300ED33FD0202BF16
:100109000202E7EC5D046005E8590470030202DDB0
:100119001202A8580460F6EC4860F2EC7004FDFE87
:10012900FF22C860DB2481C85009C39860025006C9
:100139000202E49850CAF582E9294B4A7005AB825C
:100149000202D375F0007C1A7880C3EF9BEE9AED1A
:1001590099400DC3EF9BFFEE9AFEED99FDE842F041
:10016900DC23ACF0D0E0FFD0E0FED0E0FDAB822094
:10017900E7101BEB60BAEC2CFCEF33FFEE33FEED1E
:1001890033FD0202BFE803F830E705C0F075F0005F
:10019900EF2FFFEE33FEED33FD40B830E7C280AA02
:1001A90074F8CC6480CCC86480C8F58204604FC3FD
:1001B900EB9FF5F0EA9E42F0E99D42F0E89C45F09C
:1001C900603C501DE5825FFFE582D313CB5BCBF426
:1001D9002B5582FB50280ABA002409B9002008804F
:1001E9001DE5825BFBE582D313CF5FCFF4C3132FE9
:1001F9005582FF50090EBE00050DBD00010CC3EB71
:100209009FF5F0EA9E42F0E99D42F0E89C45F060D6
:0902190007CC4820E701B3EC22F8
:10022200ED33EC33600A047003BD8004ECB2E7FCEA
:0102320022A9
:1002330075F020800E75F010800575F0087D007E46
:10024300007F003392D530D503120454EC334010B1
:10025300EF33FFEE33FEED33FDEC33FCD5F0ED224F
:0E026300E5F0247EA2D513CC92E7CDCEFF228B
:10027100EDD2E7CD33EC3392D524814006E4FFFE85
:10028100FDFC22FCE4CFCECDCC24E0501174FF80E4
:10029100EDC3CC13CCCD13CDCE13CECF13CF047081
:0702A100F030D5DE02045429
:1002A800E9D2E7C933E833F892D5EDD2E7CD33EC9C
:0702B80033FC5002B2D52215
:1002BF00EC30E7100FBF000C0EBE00080DBD0004A0
:1002CF000BEB6014A2D5EB13FCED92E7FD2274FF4C
:1002DF00FCFDFEFF22E480F8A2D574FF13FC7D80A5
:0302EF00E480EFB9
:1002F200BB010CE58229F582E5833AF583E02250C1
:1003020006E92582F8E622BBFE06E92582F8E2220A
:0D031200E58229F582E5833AF583E4932224
:10031F00EF8DF0A4A8F0CF8CF0A428CE8DF0A42EF2
:02032F00FE22AC
:10033100BC000BBE0029EF8DF084FFADF022E4CCB0
:10034100F875F008EF2FFFEE33FEEC33FCEE9DEC79
:10035100984005FCEE9DFE0FD5F0E9E4CEFD22EDBF
:10036100F8F5F0EE8420D21CFEADF075F008EF2F09
:10037100FFED33FD4007985006D5F0F222C398FDFA
:050381000FD5F0EA2297
:1003860075F008758200EF2FFFEE33FECD33CDCC2E
:1003960033CCC58233C5829BED9AEC99E5829840B1
:1003A6000CF582EE9BFEED9AFDEC99FC0FD5F0D68E
:1003B600E4CEFBE4CDFAE4CCF9A88222B800C1B9B8
:1003C6000059BA002DEC8BF084CFCECDFCE5F0CBF6
:1003D600F97818EF2FFFEE33FEED33FDEC33FCEB2F
:1003E60033FB10D703994004EB99FB0FD8E5E4F9EA
:1003F600FA227818EF2FFFEE33FEED33FDEC33FCD7
:10040600C933C910D7059BE99A4007EC9BFCE99ACA
:10041600F90FD8E0E4C9FAE4CCFB2275F010EF2F0F
:10042600FFEE33FEED33FDCC33CCC833C810D7070F
:100436009BEC9AE899400AED9BFDEC9AFCE899F84A
:0E0446000FD5F0DAE4CDFBE4CCFAE4C8F922DD
:0E045400C3E49FFFE49EFEE49DFDE49CFC22B9
:00000001FF
